{
  "address": "0xD4deB045fb89E750864a7349087A6674C1E79F78",
  "abi": [
    {
      "inputs": [
        {
          "internalType": "string",
          "name": "_greeting",
          "type": "string"
        }
      ],
      "stateMutability": "nonpayable",
      "type": "constructor"
    },
    {
      "inputs": [],
      "name": "greet",
      "outputs": [
        {
          "internalType": "string",
          "name": "",
          "type": "string"
        }
      ],
      "stateMutability": "view",
      "type": "function"
    },
    {
      "inputs": [],
      "name": "greeting",
      "outputs": [
        {
          "internalType": "string",
          "name": "",
          "type": "string"
        }
      ],
      "stateMutability": "view",
      "type": "function"
    },
    {
      "inputs": [
        {
          "internalType": "string",
          "name": "_greeting",
          "type": "string"
        }
      ],
      "name": "setGreeting",
      "outputs": [],
      "stateMutability": "nonpayable",
      "type": "function"
    }
  ],
  "transactionHash": "0x41ef031e20b772de6b43a820e1ffdfc80b3d7fbdb978a75d13dee7a1b554f237",
  "args": [
    "Guten tag, Rinkeby!"
  ],
  "solcInputHash": "f94d787e631c3c012ab6ad345de3df45",
  "bytecode": "0x60806040523480156200001157600080fd5b5060405162000cdd38038062000cdd833981810160405281019062000037919062000278565b6200006760405180606001604052806022815260200162000cbb60229139826200008760201b620002d81760201c565b80600090805190602001906200007f92919062000156565b505062000497565b620001298282604051602401620000a0929190620002fe565b6040516020818303038152906040527f4b5c4277000000000000000000000000000000000000000000000000000000007bffffffffffffffffffffffffffffffffffffffffffffffffffffffff19166020820180517bffffffffffffffffffffffffffffffffffffffffffffffffffffffff83818316178352505050506200012d60201b60201c565b5050565b60008151905060006a636f6e736f6c652e6c6f679050602083016000808483855afa5050505050565b8280546200016490620003f2565b90600052602060002090601f016020900481019282620001885760008555620001d4565b82601f10620001a357805160ff1916838001178555620001d4565b82800160010185558215620001d4579182015b82811115620001d3578251825591602001919060010190620001b6565b5b509050620001e39190620001e7565b5090565b5b8082111562000202576000816000905550600101620001e8565b5090565b60006200021d62000217846200036d565b62000339565b9050828152602081018484840111156200023657600080fd5b62000243848285620003bc565b509392505050565b600082601f8301126200025d57600080fd5b81516200026f84826020860162000206565b91505092915050565b6000602082840312156200028b57600080fd5b600082015167ffffffffffffffff811115620002a657600080fd5b620002b4848285016200024b565b91505092915050565b6000620002ca82620003a0565b620002d68185620003ab565b9350620002e8818560208601620003bc565b620002f38162000486565b840191505092915050565b600060408201905081810360008301526200031a8185620002bd565b90508181036020830152620003308184620002bd565b90509392505050565b6000604051905081810181811067ffffffffffffffff8211171562000363576200036262000457565b5b8060405250919050565b600067ffffffffffffffff8211156200038b576200038a62000457565b5b601f19601f8301169050602081019050919050565b600081519050919050565b600082825260208201905092915050565b60005b83811015620003dc578082015181840152602081019050620003bf565b83811115620003ec576000848401525b50505050565b600060028204905060018216806200040b57607f821691505b6020821081141562000422576200042162000428565b5b50919050565b7f4e487b7100000000000000000000000000000000000000000000000000000000600052602260045260246000fd5b7f4e487b7100000000000000000000000000000000000000000000000000000000600052604160045260246000fd5b6000601f19601f8301169050919050565b61081480620004a76000396000f3fe608060405234801561001057600080fd5b50600436106100415760003560e01c8063a413686214610046578063cfae321714610062578063ef690cc014610080575b600080fd5b610060600480360381019061005b919061054a565b61009e565b005b61006a6101b8565b60405161007791906105c4565b60405180910390f35b61008861024a565b60405161009591906105c4565b60405180910390f35b61019e6040518060400160405280601681526020017f4368616e67696e67206772656574696e672066726f6d00000000000000000000815250600080546100e49061073d565b80601f01602080910402602001604051908101604052809291908181526020018280546101109061073d565b801561015d5780601f106101325761010080835404028352916020019161015d565b820191906000526020600020905b81548152906001019060200180831161014057829003601f168201915b50505050506040518060400160405280600281526020017f746f00000000000000000000000000000000000000000000000000000000000081525084610374565b80600090805190602001906101b492919061043f565b5050565b6060600080546101c79061073d565b80601f01602080910402602001604051908101604052809291908181526020018280546101f39061073d565b80156102405780601f1061021557610100808354040283529160200191610240565b820191906000526020600020905b81548152906001019060200180831161022357829003601f168201915b5050505050905090565b600080546102579061073d565b80601f01602080910402602001604051908101604052809291908181526020018280546102839061073d565b80156102d05780601f106102a5576101008083540402835291602001916102d0565b820191906000526020600020905b8154815290600101906020018083116102b357829003601f168201915b505050505081565b61037082826040516024016102ee9291906105e6565b6040516020818303038152906040527f4b5c4277000000000000000000000000000000000000000000000000000000007bffffffffffffffffffffffffffffffffffffffffffffffffffffffff19166020820180517bffffffffffffffffffffffffffffffffffffffffffffffffffffffff8381831617835250505050610416565b5050565b6104108484848460405160240161038e949392919061061d565b6040516020818303038152906040527fde68f20a000000000000000000000000000000000000000000000000000000007bffffffffffffffffffffffffffffffffffffffffffffffffffffffff19166020820180517bffffffffffffffffffffffffffffffffffffffffffffffffffffffff8381831617835250505050610416565b50505050565b60008151905060006a636f6e736f6c652e6c6f679050602083016000808483855afa5050505050565b82805461044b9061073d565b90600052602060002090601f01602090048101928261046d57600085556104b4565b82601f1061048657805160ff19168380011785556104b4565b828001600101855582156104b4579182015b828111156104b3578251825591602001919060010190610498565b5b5090506104c191906104c5565b5090565b5b808211156104de5760008160009055506001016104c6565b5090565b60006104f56104f0846106af565b61067e565b90508281526020810184848401111561050d57600080fd5b6105188482856106fb565b509392505050565b600082601f83011261053157600080fd5b81356105418482602086016104e2565b91505092915050565b60006020828403121561055c57600080fd5b600082013567ffffffffffffffff81111561057657600080fd5b61058284828501610520565b91505092915050565b6000610596826106df565b6105a081856106ea565b93506105b081856020860161070a565b6105b9816107cd565b840191505092915050565b600060208201905081810360008301526105de818461058b565b905092915050565b60006040820190508181036000830152610600818561058b565b90508181036020830152610614818461058b565b90509392505050565b60006080820190508181036000830152610637818761058b565b9050818103602083015261064b818661058b565b9050818103604083015261065f818561058b565b90508181036060830152610673818461058b565b905095945050505050565b6000604051905081810181811067ffffffffffffffff821117156106a5576106a461079e565b5b8060405250919050565b600067ffffffffffffffff8211156106ca576106c961079e565b5b601f19601f8301169050602081019050919050565b600081519050919050565b600082825260208201905092915050565b82818337600083830152505050565b60005b8381101561072857808201518184015260208101905061070d565b83811115610737576000848401525b50505050565b6000600282049050600182168061075557607f821691505b602082108114156107695761076861076f565b5b50919050565b7f4e487b7100000000000000000000000000000000000000000000000000000000600052602260045260246000fd5b7f4e487b7100000000000000000000000000000000000000000000000000000000600052604160045260246000fd5b6000601f19601f830116905091905056fea2646970667358221220354bc3d0c1401cad23656fcdc8349969a13aa14ad64cdeeceb40c7b56b3208b864736f6c634300080000334465706c6f79696e67206120477265657465722077697468206772656574696e673a",
  "devdoc": {
    "kind": "dev",
    "methods": {},
    "version": 1
  },
  "userdoc": {
    "kind": "user",
    "methods": {},
    "version": 1
  },
  "storageLayout": {
    "storage": [
      {
        "astId": 317,
        "contract": "contracts/Greeter.sol:Greeter",
        "label": "greeting",
        "offset": 0,
        "slot": "0",
        "type": "t_string_storage"
      }
    ],
    "types": {
      "t_string_storage": {
        "encoding": "bytes",
        "label": "string",
        "numberOfBytes": "32"
      }
    }
  }
}